{
    "_format": "hh-sol-artifact-1",
    "contractName": "BarberTransactions",
    "sourceName": "contracts/BarberTransactions.sol",
    "abi": [
        {
            "anonymous": false,
            "inputs": [
                {
                    "indexed": false,
                    "internalType": "address",
                    "name": "from",
                    "type": "address"
                },
                {
                    "indexed": false,
                    "internalType": "address",
                    "name": "receiver",
                    "type": "address"
                },
                {
                    "indexed": false,
                    "internalType": "uint256",
                    "name": "amount",
                    "type": "uint256"
                },
                {
                    "indexed": false,
                    "internalType": "string",
                    "name": "message",
                    "type": "string"
                },
                {
                    "indexed": false,
                    "internalType": "uint256",
                    "name": "timestamp",
                    "type": "uint256"
                },
                {
                    "indexed": false,
                    "internalType": "string",
                    "name": "keyword",
                    "type": "string"
                },
                {
                    "indexed": false,
                    "internalType": "string",
                    "name": "barberShopName",
                    "type": "string"
                }
            ],
            "name": "Transfer",
            "type": "event"
        },
        {
            "inputs": [
                {
                    "internalType": "address payable",
                    "name": "receiver",
                    "type": "address"
                },
                {
                    "internalType": "uint256",
                    "name": "amount",
                    "type": "uint256"
                },
                {
                    "internalType": "string",
                    "name": "message",
                    "type": "string"
                },
                {
                    "internalType": "string",
                    "name": "keyword",
                    "type": "string"
                },
                {
                    "internalType": "string",
                    "name": "barberShopName",
                    "type": "string"
                }
            ],
            "name": "addToBlockchain",
            "outputs": [],
            "stateMutability": "nonpayable",
            "type": "function"
        },
        {
            "inputs": [],
            "name": "getAllTransactions",
            "outputs": [
                {
                    "components": [
                        {
                            "internalType": "address",
                            "name": "sender",
                            "type": "address"
                        },
                        {
                            "internalType": "address",
                            "name": "receiver",
                            "type": "address"
                        },
                        {
                            "internalType": "uint256",
                            "name": "amount",
                            "type": "uint256"
                        },
                        {
                            "internalType": "string",
                            "name": "message",
                            "type": "string"
                        },
                        {
                            "internalType": "uint256",
                            "name": "timestamp",
                            "type": "uint256"
                        },
                        {
                            "internalType": "string",
                            "name": "keyword",
                            "type": "string"
                        },
                        {
                            "internalType": "string",
                            "name": "barberShopName",
                            "type": "string"
                        }
                    ],
                    "internalType": "struct BarberTransactions.barberTransferStruct[]",
                    "name": "",
                    "type": "tuple[]"
                }
            ],
            "stateMutability": "view",
            "type": "function"
        },
        {
            "inputs": [],
            "name": "getbarberTransactionCount",
            "outputs": [
                {
                    "internalType": "uint256",
                    "name": "",
                    "type": "uint256"
                }
            ],
            "stateMutability": "view",
            "type": "function"
        }
    ],
    "bytecode": "0x608060405234801561001057600080fd5b50610d20806100206000396000f3fe608060405234801561001057600080fd5b50600436106100415760003560e01c806327506f5314610046578063854a467d14610064578063be9863a314610082575b600080fd5b61004e61009e565b60405161005b91906109cc565b60405180910390f35b61006c610373565b60405161007991906109ee565b60405180910390f35b61009c60048036038101906100979190610699565b61037c565b005b60606001805480602002602001604051908101604052809291908181526020016000905b8282101561036a57838290600052602060002090600702016040518060e00160405290816000820160009054906101000a900473ffffffffffffffffffffffffffffffffffffffff1673ffffffffffffffffffffffffffffffffffffffff1673ffffffffffffffffffffffffffffffffffffffff1681526020016001820160009054906101000a900473ffffffffffffffffffffffffffffffffffffffff1673ffffffffffffffffffffffffffffffffffffffff1673ffffffffffffffffffffffffffffffffffffffff168152602001600282015481526020016003820180546101ab90610bec565b80601f01602080910402602001604051908101604052809291908181526020018280546101d790610bec565b80156102245780601f106101f957610100808354040283529160200191610224565b820191906000526020600020905b81548152906001019060200180831161020757829003601f168201915b505050505081526020016004820154815260200160058201805461024790610bec565b80601f016020809104026020016040519081016040528092919081815260200182805461027390610bec565b80156102c05780601f10610295576101008083540402835291602001916102c0565b820191906000526020600020905b8154815290600101906020018083116102a357829003601f168201915b505050505081526020016006820180546102d990610bec565b80601f016020809104026020016040519081016040528092919081815260200182805461030590610bec565b80156103525780601f1061032757610100808354040283529160200191610352565b820191906000526020600020905b81548152906001019060200180831161033557829003601f168201915b505050505081525050815260200190600101906100c2565b50505050905090565b60008054905090565b600160008082825461038e9190610ad0565b9250508190555060016040518060e001604052803373ffffffffffffffffffffffffffffffffffffffff1681526020018773ffffffffffffffffffffffffffffffffffffffff16815260200186815260200185815260200142815260200184815260200183815250908060018154018082558091505060019003906000526020600020906007020160009091909190915060008201518160000160006101000a81548173ffffffffffffffffffffffffffffffffffffffff021916908373ffffffffffffffffffffffffffffffffffffffff16021790555060208201518160010160006101000a81548173ffffffffffffffffffffffffffffffffffffffff021916908373ffffffffffffffffffffffffffffffffffffffff1602179055506040820151816002015560608201518160030190805190602001906104d3929190610564565b506080820151816004015560a08201518160050190805190602001906104fa929190610564565b5060c0820151816006019080519060200190610517929190610564565b5050507f21ec5b3f3e6c597e1a0d1650e5545618667a89bf7d7341cc53e38673d3dede32338686864287876040516105559796959493929190610948565b60405180910390a15050505050565b82805461057090610bec565b90600052602060002090601f01602090048101928261059257600085556105d9565b82601f106105ab57805160ff19168380011785556105d9565b828001600101855582156105d9579182015b828111156105d85782518255916020019190600101906105bd565b5b5090506105e691906105ea565b5090565b5b808211156106035760008160009055506001016105eb565b5090565b600061061a61061584610a3a565b610a09565b90508281526020810184848401111561063257600080fd5b61063d848285610baa565b509392505050565b60008135905061065481610cbc565b92915050565b600082601f83011261066b57600080fd5b813561067b848260208601610607565b91505092915050565b60008135905061069381610cd3565b92915050565b600080600080600060a086880312156106b157600080fd5b60006106bf88828901610645565b95505060206106d088828901610684565b945050604086013567ffffffffffffffff8111156106ed57600080fd5b6106f98882890161065a565b935050606086013567ffffffffffffffff81111561071657600080fd5b6107228882890161065a565b925050608086013567ffffffffffffffff81111561073f57600080fd5b61074b8882890161065a565b9150509295509295909350565b60006107648383610880565b905092915050565b61077581610b74565b82525050565b61078481610b26565b82525050565b61079381610b26565b82525050565b60006107a482610a7a565b6107ae8185610a9d565b9350836020820285016107c085610a6a565b8060005b858110156107fc57848403895281516107dd8582610758565b94506107e883610a90565b925060208a019950506001810190506107c4565b50829750879550505050505092915050565b600061081982610a85565b6108238185610aae565b9350610833818560208601610bb9565b61083c81610cab565b840191505092915050565b600061085282610a85565b61085c8185610abf565b935061086c818560208601610bb9565b61087581610cab565b840191505092915050565b600060e083016000830151610898600086018261077b565b5060208301516108ab602086018261077b565b5060408301516108be604086018261092a565b50606083015184820360608601526108d6828261080e565b91505060808301516108eb608086018261092a565b5060a083015184820360a0860152610903828261080e565b91505060c083015184820360c086015261091d828261080e565b9150508091505092915050565b61093381610b6a565b82525050565b61094281610b6a565b82525050565b600060e08201905061095d600083018a61078a565b61096a602083018961076c565b6109776040830188610939565b81810360608301526109898187610847565b90506109986080830186610939565b81810360a08301526109aa8185610847565b905081810360c08301526109be8184610847565b905098975050505050505050565b600060208201905081810360008301526109e68184610799565b905092915050565b6000602082019050610a036000830184610939565b92915050565b6000604051905081810181811067ffffffffffffffff82111715610a3057610a2f610c7c565b5b8060405250919050565b600067ffffffffffffffff821115610a5557610a54610c7c565b5b601f19601f8301169050602081019050919050565b6000819050602082019050919050565b600081519050919050565b600081519050919050565b6000602082019050919050565b600082825260208201905092915050565b600082825260208201905092915050565b600082825260208201905092915050565b6000610adb82610b6a565b9150610ae683610b6a565b9250827fffffffffffffffffffffffffffffffffffffffffffffffffffffffffffffffff03821115610b1b57610b1a610c1e565b5b828201905092915050565b6000610b3182610b4a565b9050919050565b6000610b4382610b4a565b9050919050565b600073ffffffffffffffffffffffffffffffffffffffff82169050919050565b6000819050919050565b6000610b7f82610b86565b9050919050565b6000610b9182610b98565b9050919050565b6000610ba382610b4a565b9050919050565b82818337600083830152505050565b60005b83811015610bd7578082015181840152602081019050610bbc565b83811115610be6576000848401525b50505050565b60006002820490506001821680610c0457607f821691505b60208210811415610c1857610c17610c4d565b5b50919050565b7f4e487b7100000000000000000000000000000000000000000000000000000000600052601160045260246000fd5b7f4e487b7100000000000000000000000000000000000000000000000000000000600052602260045260246000fd5b7f4e487b7100000000000000000000000000000000000000000000000000000000600052604160045260246000fd5b6000601f19601f8301169050919050565b610cc581610b38565b8114610cd057600080fd5b50565b610cdc81610b6a565b8114610ce757600080fd5b5056fea2646970667358221220e1c9dfa22ba97c942252466b7fbaa567d7a7c13f8fec4dddcb914086b06d5f1b64736f6c63430008000033",
    "linkReferences": {},
    "deployedLinkReferences": {}
}